:020000040800F2
:10000000B006002089020008970200089902000843
:100010009B0200089D0200089F02000800000000EB
:10002000000000000000000000000000A102000825
:10003000A302000800000000A5020008A7020008B3
:10004000A9020008A9020008A9020008A9020008E4
:10005000A9020008A9020008A9020008A9020008D4
:10006000A9020008A9020008A9020008A9020008C4
:10007000A9020008A9020008A9020008A9020008B4
:10008000A9020008A9020008A9020008A9020008A4
:10009000A9020008A9020008A9020008A902000894
:1000A000A9020008A9020008A9020008A902000884
:1000B000A9020008A9020008191E0008A9020008E8
:1000C000A9020008A9020008A9020008A902000864
:1000D000A9020008A51E0008A9020008A90200083C
:1000E000A9020008A9020008A9020008A902000844
:1000F000A9020008A9020008A9020008A902000834
:10010000A9020008A9020008A9020008A902000823
:10011000A9020008A9020008A9020008A902000813
:10012000A9020008A9020008A9020008A902000803
:10013000A9020008A9020008A9020008A9020008F3
:10014000A9020008A9020008A9020008A9020008E3
:10015000A9020008A9020008A9020008A9020008D3
:10016000A9020008A9020008A9020008A9020008C3
:10017000A9020008A9020008A9020008A9020008B3
:10018000A9020008A902000800F002F800F06DF8CA
:100190000AA090E8000C82448344AAF10107DA45E2
:1001A00001D100F062F8AFF2090EBAE80F0013F0C7
:1001B000010F18BFFB1A43F00103184774510000E8
:1001C000945100000A444FF0000C10F8013B13F06A
:1001D000070408BF10F8014B1D1108BF10F8015BA0
:1001E000641E05D010F8016B641E01F8016BF9D193
:1001F00013F0080F1EBF10F8014BAD1C0C1B09D1EA
:100200006D1E58BF01F801CBFAD505E014F8016B5B
:1002100001F8016B6D1EF9D59142D6D370470000ED
:100220000023002400250026103A28BF78C1FBD8FF
:10023000520728BF30C148BF0B607047642900F0E7
:10024000A380752900F0A080782900F0D980632967
:1002500000F02D82732900F03282002070471FB514
:1002600004F0A0FF1FBD10B510BD00F05BFA1146F1
:10027000FFF7F5FF03F080FA00F079FA03B4FFF717
:10028000F2FF03BC01F055FE0B48016841F4700118
:1002900001600A480047FEE7FEE7FEE7FEE7FEE7EB
:1002A000FEE7FEE7FEE7FEE7FEE70000044805493B
:1002B000034A054B7047000088ED00E08901000803
:1002C000B0020020B0060020B002002070470000FD
:1002D0000FB4044910B503AA029800F0F5F910BC58
:1002E0005DF814FB0400002070B5044685690068C1
:1002F000C10601D5302600E02026C00707D070BD1A
:10030000D4E9012130469047206A401C20626D1ECE
:10031000F6D570BD70B5044685690078C00707D171
:1003200070BDD4E9012120209047206A401C206242
:100330006D1EF6D570BD70B50C460546012A05D078
:100340002878800600D5EA69002302E0012305E051
:100350005B1C934202D2E05C0028F9D1A869E61840
:10036000C01AA861286A184428622846FFF7BCFF13
:1003700004E0D5E9012114F8010B9047B442F8D309
:100380002846FFF7C7FF70BD2DE9F041064600245F
:1003900010687529314616A510D0AFF300800028EB
:1003A00002DA404213A507E031688A0701D512A599
:1003B00002E0490704D511A5012401E0AFF3008054
:1003C00000210A2206F1240709E0B0FBF2FCB0FB91
:1003D000F2F302FB1C00303078541846491C002808
:1003E000F3D123462A463046BDE8F04100F0FCB880
:1003F000000000002D0000002B0000002000000085
:1004000070B504460D4621461068AFF30080218880
:10041000090502D50F4A7A4402E00E4A7A440E32A8
:10042000002104F1240305E000F00F060009965DA9
:100430005E54491C0028F7D120780023000704D51A
:10044000702D02D009B1022311322046BDE8704060
:1004500000F0CAB8944D00002DE9F05F89460446CB
:100460004FF0000ADFF874B1FB44C0F820A020462A
:10047000E1688847002874D0252806D0D4E90121F6
:100480009047206A401C2062F1E700265F46204624
:10049000E16888472028054607DB312D05D2781909
:1004A00010F8200C08B10643F1E7B00701D526F09B
:1004B0000406C4F81CA00027C4F818A02A2D09D0EF
:1004C000284601F02FFD38B304EB8708303DC8F80B
:1004D000185019E059F8041B204604EB870291617B
:1004E000E1688847012F054618D1E069002820DA25
:1004F00026F020061DE0D8F8180000EB800005EB80
:1005000040003038C8F818002046E16888470546A2
:1005100001F008FD0028EED1012F0AD02E2D08D1C0
:100520002046E16888477F1C0546022F46F02006DA
:10053000C4DBA069002803DA404246F00106A0614E
:10054000F00701D026F010066C2D0BD0682D09D0D5
:100550004C2D39D06A2D35D0742D35D07A2D33D02D
:1005600016E038E0E1682F4620468847B842054645
:1005700009D16C2F26D04FF48060E16806432046F5
:100580008847054604E06C2F1AD04FF4807006436C
:100590000DB3A5F14100192802D8203546F40066B4
:1005A0004A462946204626604E46FFF747FE80B160
:1005B00001280BD0F61D26F0070000F1080956E7C8
:1005C0004020E4E78020D8E70020D6E706F10409C0
:1005D0004DE7284652E7206ABDE8F09F6A4D0000CB
:1005E00070477047704770472DE9F0470D469946B0
:1005F0009246044600F124080168880604D5E069A3
:1006000021F01001216000E00120A84201DD471B1C
:1006100000E00027A1697A1902EB0900081AA0611D
:100620002078C00602D42046FFF75EFE002608E0D0
:10063000D4E901211AF806009047206A401C761C74
:1006400020624E45F4DB2078C0060AD52046FFF72D
:100650004BFE06E0D4E9012130209047206A401C7F
:100660002062381EA7F10107F4DC07E0D4E901217C
:1006700018F805009047206A401C2062281EA5F14A
:100680000105F3DC2046FFF745FE2078000602D581
:100690000220BDE8F0870120FBE710B5436913B1E4
:1006A000AFF3008001E0FFF746FE012010BD127895
:1006B00000F124010A7000224A700122EDE711685E
:1006C0004FF0FF32E9E70000074B70B50D467B4461
:1006D00000F011F80446284600F020F810B14FF061
:1006E000FF3070BD204670BD7F19000001694A1CB3
:1006F00002610878704700B58FB0CDE90131002163
:10070000059105497944CDE9031011466846FFF784
:10071000A3FE0FB000BD0000E5FFFFFF007B00F06F
:1007200080007047754600F029F8AE46050069461E
:10073000534620F00700854618B020B5FFF7B6FDF8
:10074000BDE820404FF000064FF000074FF00008D2
:100750004FF0000B21F00701AC46ACE8C009ACE853
:10076000C009ACE8C009ACE8C0098D467047044632
:10077000AFF300802046FFF781FD0000004870477E
:100780004C02002001200349086000200249C1F802
:10079000980270479C8240420080404200200349FA
:1007A000086001200249C1F8980270479C824042CB
:1007B0000080404201200349086000200249C1F83E
:1007C000A8027047AC8240420080404200200349AA
:1007D000086001200249C1F8A8027047AC8240427B
:1007E0000080404201200349086000200249C1F80E
:1007F00090027047940240420000404200200349AA
:10080000086001200249C1F89002704794024042FA
:100810000000404201200349086000200249C1F85D
:10082000A0027047808240420000404200200349FD
:10083000086001200249C1F8A0027047808240424E
:10084000000040421CB500F0CBFF2548006840F096
:100850000200234908600846006840F00100086073
:1008600000F0BEFF0220032100230122CDE9001089
:10087000C0211C4800F078F8FFF784FF0220032114
:1008800000230122CDE900108902164800F06CF81F
:10089000FFF790FF0220032100230122CDE9001081
:1008A0003021114800F060F8FFF79CFF022003217F
:1008B00000230122CDE90010C1010B4800F054F8DB
:1008C0000220032100230122CDE900101146054832
:1008D00000F04AF8FFF79EFF01F0ACF91CBD0000E4
:1008E00030380240000402400000024000200A4963
:1008F00008600A49C1F89802074910310860091FC9
:10090000086007490860091F086003491C3908602E
:100910000449C1F8A00270479C82404200804042D6
:10092000940240420000404230B5CC1000F1200358
:1009300053F824304C07E50E0F24AC40A343CD10F0
:1009400000F1200444F82530CC1000F1200353F8C6
:1009500024304C07E40E02FA04F42343CD1000F1D6
:10096000200444F8253030BD2DE9F0470C46DDE980
:100970000867002100258C4600BF60E04FF00108A9
:1009800008FA01F504EA050CAC4557D1D0F800800F
:100990004FEA410A4FF0030909FA0AF928EA09085F
:1009A000C0F80080D0F800804FEA410902FA09F946
:1009B00048EA0908C0F80080012A01D0022A27D19C
:1009C000D0F808804FEA410A4FF0030909FA0AF902
:1009D00028EA0908C0F80880D0F808804FEA4109E1
:1009E00006FA09F948EA0908C0F80880D0F8049026
:1009F0004FF0010808FA01F829EA0809C0F8049044
:100A0000D0F8048003FA01F948EA0908C0F8048024
:100A1000D0F80C804FEA410A4FF0030909FA0AF9AD
:100A200028EA0908C0F80C80D0F80C804FEA410988
:100A300007FA09F948EA0908C0F80C80491C10298E
:100A40009CD3BDE8F08710B500F0CAF810BD0000D7
:100A50002DE9F04100F076F8044600F059F805461B
:100A600000F0A4F8064600F087F8074612A0FFF74A
:100A70002FFC16A0FFF72CFC214615A0FFF728FC41
:100A800012A0FFF725FC294615A0FFF721FC0FA0B7
:100A9000FFF71EFC314616A0FFF71AFC0BA0FFF76C
:100AA00017FC394616A0FFF713FC08A0FFF710FC4F
:100AB0000020BDE8F081000049525F746573742026
:100AC0007374617274696E672E2E2E000A00000026
:100AD00049525F46726F6E74203D2025640A000003
:100AE00049525F426568696E64203D2025640A00B2
:100AF00049525F5269676874203D2025640A0000EE
:100B000049525F4C656674203D2025640A00000050
:100B10000A4802680A48D0F8381212B909B9002008
:100B20007047012A02D109B90120F9E71AB9012950
:100B300001D1881EF4E740F29710F1E734024342F6
:100B4000000043420A4802680A48D0F8381212B935
:100B500009B900207047012A02D109B90120F9E73B
:100B60001AB9012901D1881EF4E740F29710F1E784
:100B700008824042000040420A4802680A48D0F811
:100B8000041212B909B900207047012A02D109B92B
:100B90000120F9E71AB9012901D1881EF4E740F2D2
:100BA0009710F1E700024142000041420A48026802
:100BB0000A48D0F8041212B909B900207047012A76
:100BC00002D109B90120F9E71AB9012901D1881E1A
:100BD000F4E740F29710F1E7008241420080414281
:100BE0001CB53248006840F001003049086002201E
:100BF000032100231A46CDE9001049032C48FFF7D2
:100C0000B3FE2A48006840F002002849086002202C
:100C1000032100231A46CDE9001004212548FFF7DF
:100C2000A3FE2248006840F004002049086002202A
:100C3000032100231A46CDE900101F48FFF794FE58
:100C40000220032100231A46CDE9001010211A4882
:100C5000FFF78AFE0220032100231A46CDE9001087
:100C600020211548FFF780FE1048006840F008007A
:100C70000E4908600220032100231A46CDE9001026
:100C80000E48FFF771FE0948006840F04000074930
:100C900008600220032100231A46CDE900104FF41A
:100CA00060410748FFF760FE1CBD0000303802407D
:100CB000000002400004024000080240000C024014
:100CC000001802401CB53348006840F00400314968
:100CD00008600846006840F0100008600846006898
:100CE00040F0200008600220032100230122CDE90A
:100CF000001054212848FFF737FE0220032100236B
:100D00000122CDE9001040F255112448FFF72CFED6
:100D1000022000210B460A46CDE9001028211E487A
:100D2000FFF722FE022000210B460A46CDE9001003
:100D300001031B48FFF718FE022000210B460A465C
:100D4000CDE90010AA211548FFF70EFE0220002170
:100D50000B460A46CDE9001004211148FFF704FEB6
:100D60000020104908601049C1F890020D49103167
:100D700008600E4908600D49083108600B491031C0
:100D800008600A49183108600949C1F8A00200F05A
:100D900089FC1CBD303802400010024000140240A3
:100DA00000080240880242420000424280824242E1
:100DB000008042422DE9F0410446002700250AE068
:100DC000002605E0002004EB451141F82600761CC2
:100DD000082EF7DB6D1C082DF2DB082508260A20FB
:100DE00001F0DEF80120F94908600725F848D0F83D
:100DF0000C02012820D0F5487438006801281BD067
:100E0000F4480068012817D0F3480068012813D07F
:100E1000F1480830006801280ED0EF481030006813
:100E2000012809D0EC4818300068012804D0E948AE
:100E30002C38006801284ED1E4487C38006801282D
:100E400004D1002604EB451141F82600DF48743830
:100E50000068012804D1012604EB451141F8260061
:100E6000DC480068012804D1022604EB451141F852
:100E70002600D9480068012804D1032604EB451157
:100E800041F82600D44808300068012804D104261F
:100E900004EB451141F82600CF48103000680128C6
:100EA00004D1052604EB451141F82600CA48183044
:100EB0000068012804D1062604EB451141F82600FC
:100EC000C4482C380068012804D1072604EB4511DA
:100ED00041F82600B2E30020BC4908600120BC496B
:100EE000C1F890020625B9487C380068012820D056
:100EF000B6487438006801281BD0B648006801283D
:100F000017D0B5480068012813D0B34808300068EE
:100F100001280ED0B04810300068012809D0AE4832
:100F200018300068012804D0AA482C38006801282D
:100F30004ED1A6487C380068012804D1002604EB75
:100F4000451141F82600A14874380068012804D1F1
:100F5000012604EB451141F826009E48006801284F
:100F600004D1022604EB451141F826009A48006896
:100F7000012804D1032604EB451141F826009648C8
:100F800008300068012804D1042604EB451141F81B
:100F90002600914810300068012804D1052604EB92
:100FA000451141F826008C4818300068012804D10A
:100FB000062604EB451141F8260086482C380068C7
:100FC000012887D1072604EB451141F8260035E3B7
:100FD00000207E4908607E49C1F8900201207B49CB
:100FE0001031086005257A48D0F80C02012820D07D
:100FF00076487438006801281BD0764800680128BC
:1010000017D075480068012813D07348083000686D
:1010100001280ED0704810300068012809D06E48B1
:1010200018300068012804D06A482C38006801286C
:101030004BD166487C380068012804D1002604EBB7
:10104000451141F82600614874380068012804D130
:10105000012604EB451141F826005E48006801288E
:1010600004D1022604EB451141F826005A480068D5
:10107000012804D1032604EB451141F82600564807
:1010800008300068012804D1042604EB451141F81A
:101090002600514810300068012804D1052604EBD1
:1010A000451141F826004C4818300068012804D149
:1010B000062604EB451141F8260046482C38006806
:1010C000012884D107266061B8E200203F4908600A
:1010D0003F49C1F890023D491031086001203F4965
:1010E000C1F88002042539487C380068012820D0E6
:1010F00036487438006801281BD03648006801283B
:1011000017D035480068012813D0334808300068EC
:1011100001280ED0304810300068012809D02E4830
:1011200018300068012804D02A482C3800680128AB
:1011300056D126487C380068012804D1002604EBEB
:10114000451141F82600214874380068012804D16F
:10115000012604EB451141F826001E4800680128CD
:1011600004D1022604EB451141F826001A48006814
:10117000012804D1032604EB451141F82600164846
:1011800008300068012804D1042604EB451141F819
:101190002600114810300068012804D1052604EB10
:1011A000451141F826000C4818300068012804D188
:1011B000062604EB451141F8260006482C38006845
:1011C000012801D10726206138E20000880242424E
:1011D00000004242340241420482424200804242C4
:1011E0000020FE490860FE49C1F89002FB49103119
:1011F0000860FC4908600120FA49083108600325AD
:10120000F748D0F80C02012821D0F448743800685F
:1012100001281CD0F4480068012818D0F1487C3817
:101220000068012813D0EF487438006801280ED0F8
:10123000EC486C380068012809D0EA486438006836
:10124000012804D0E8482C38006801284CD1E34834
:101250007C380068012804D1002604EB451141F8D0
:101260002600DE4874380068012804D1012604EB0A
:10127000451141F82600DC480068012804D1022607
:1012800004EB451141F82600D6487C380068012857
:1012900004D1032604EB451141F82600D1487438E7
:1012A0000068012804D1042604EB451141F826000A
:1012B000CC486C380068012804D1052604EB4511A0
:1012C00041F82600C74864380068012804D1062682
:1012D00004EB451141F82600C3482C38006801286A
:1012E00001D10726E060A9E10020BC490860BC49A3
:1012F000C1F89002B94910310860BA490860B9498B
:10130000083108600120B749103108600225B34850
:101310007C380068012821D0B04874380068012862
:101320001CD0B1480068012818D0AE487C3800684D
:10133000012813D0AB487438006801280ED0A948A2
:101340006C380068012809D0A64864380068012874
:1013500004D0A5482C38006801284CD19F487C381F
:101360000068012804D1002604EB451141F826004D
:101370009A4874380068012804D1012604EB45110D
:1013800041F8260098480068012804D1022604EBA1
:10139000451141F8260093487C380068012804D1A3
:1013A000032604EB451141F826008E487438006886
:1013B000012804D1042604EB451141F82600894890
:1013C0006C380068012804D1052604EB451141F86A
:1013D0002600844864380068012804D1062604EBFE
:1013E000451141F8260080482C380068012801D1B9
:1013F0000726A06022E10020784908607849C1F8FA
:1014000090027649103108607649086075490831C4
:101410000860744910310860012072491831086071
:1014200001256F48D0F80C02012821D06B48743890
:10143000006801281CD06C480068012818D0694851
:101440007C380068012813D0664874380068012889
:101450000ED064486C380068012809D061486438AF
:101460000068012804D060482C38006801284CD15D
:101470005A487C380068012804D1002604EB451145
:1014800041F82600554874380068012804D1012627
:1014900004EB451141F8260053480068012804D1A7
:1014A000022604EB451141F826004E487C380068BE
:1014B000012804D1032604EB451141F826004948D0
:1014C00074380068012804D1042604EB451141F862
:1014D000260044486C380068012804D1052604EB36
:1014E000451141F826003F4864380068012804D1BE
:1014F000062604EB451141F826003B482C380068CD
:10150000012801D10726606098E000203349086077
:101510003349C1F8900231491031086031490860FF
:101520003049083108602F49103108602D491831C1
:10153000086001202B4920310860002527487C38AD
:101540000068012821D025487438006801281CD083
:1015500025480068012818D022487C3800680128F6
:1015600013D020487438006801280ED01D486C380C
:101570000068012809D01B4864380068012804D09D
:1015800019482C380068012858D114487C38006864
:10159000012804D1002604EB451141F826000F482C
:1015A00074380068012804D1012604EB451141F884
:1015B00026000D480068012804D1022604EB4511DD
:1015C00041F8260007487C380068012804D103262A
:1015D00004EB451141F82600024807E08802424228
:1015E0000000424280824242340241427438006824
:1015F000012804D1042604EB451141F826001D48BA
:101600000068012804D1052604EB451141F82600A5
:10161000184808300068012804D1062604EB45115B
:1016200041F8260014480068012805D1072604EB7C
:10163000451141F8260001E008250826002511E0A3
:1016400000260CE004EB451050F82600012805D1D7
:101650003246294609A0FEF73BFE7F1C761C082E69
:10166000F0DB6D1C082DEBDB0AA0FEF731FEF8B2B3
:10167000BDE8F08114824242080241426B65795B09
:1016800025645D5B25645D697320707265737365A5
:10169000640000006B65795F5363616E206F76654F
:1016A000720A00001CB51B48006840F02000194970
:1016B00008600846006840F00400086008460068BA
:1016C00040F0100008600220032100230122CDE930
:1016D000001041021048FFF747F9022003210023C0
:1016E0000122CDE9001008210C48FFF73DF9022046
:1016F000032100230122CDE900100948FFF734F946
:101700000020084908600849C1F8800207490860BC
:101710001CBD0000303802400014024000080240A6
:10172000001002408C0241420000424284024242C8
:101730002DE9F0410746884614461D46284600F02C
:1017400033F8C5F1040007FA00F60F20284100EA3B
:101750000800064306F00F06E21704EBD2625211AE
:10176000920002F1E022D2F800212146E31704EBB7
:10177000D3635B11A4EB431C012303FA0CF31A435C
:101780002046E31704EBD3635B119B0003F1E023D6
:10179000C3F800210348005D40EA061001490855DE
:1017A000BDE8F08100E400E00146072323EA0102DE
:1017B0001202054B18684FF6FF031840034B1843FD
:1017C0001043014B186070470CED00E00000FA0573
:1017D0004A0A52020243014B1A60704708ED00E0CA
:1017E00010B500200E4948630E4908600E49086094
:1017F0000E490860532140F2491000F077F9532157
:1018000040F2491000F022F9532140F2491000F053
:101810005FF8532140F2491000F00AF810BD0000B3
:1018200000200040341C0040344801403444014052
:101830007CB504460D462348006840F40030214939
:10184000086020481438006840F002001D4914392F
:1018500008600220032100230246CDE90010C101E7
:101860001948FFF781F8032208211748FFF75CF8B1
:1018700016480460011F0D8014481438008840F099
:1018800060001249143908800846008840F00800BA
:1018900008800E480C38008840F001000B490C39D4
:1018A000088008460088088008482C38008840F0E6
:1018B000800006492C3908800846008840F0010065
:1018C00008807CBD44380240000402402C440140A2
:1018D0007CB504460D462348006840F48020214929
:1018E000086020481438006840F002001D4914398F
:1018F00008600220032100230246CDE90010010206
:101900001948FFF731F8032209211748FFF70CF8AF
:1019100016480460011F0D8014481438008840F0F8
:1019200060001249143908800846008840F0080019
:1019300008800E480C38008840F001000B490C3933
:10194000088008460088088008482C38008840F045
:10195000800006492C3908800846008840F00100C4
:1019600008807CBD44380240000402402C480140FD
:101970007CB504460D463248006840F040003049CE
:1019800008602F481038006840F002002C491039D8
:1019900008600220032100230246CDE900108903DC
:1019A0002848FEF7E1FF09220E212648FEF7BCFF7A
:1019B00009220F212348FEF7B7FF23480460011FC7
:1019C0000D8021481438008840F060001E49143909
:1019D00008800846008840F0080008801A480C3843
:1019E000008840F0010018490C390880084600883A
:1019F000088015481438008840F4C0401249143952
:101A000008800846008840F4006008800E480C38C2
:101A1000008840F010000C490C3908800846008806
:101A2000088009482C38008840F0800006492C398D
:101A300008800846008840F0010008807CBD000056
:101A400040380240000402402C1800407CB5044697
:101A50000D462348006840F0800021490860204876
:101A60001038006840F001001D491039086002205C
:101A7000032100230246CDE9001040211948FEF75A
:101A800073FF092206211748FEF74EFF164804602F
:101A9000011F0D8014481438008840F0600012497E
:101AA000143908800846008840F0080008800E4875
:101AB0000C38008840F001000B490C3908800846BA
:101AC0000088088008482C38008840F080000649CB
:101AD0002C3908800846008840F0010008807CBD51
:101AE00040380240000002402C1C00407CB50446F7
:101AF0000D461E48006840F480701C4908601B4871
:101B00001038006840F001001849103908600220C0
:101B1000032100230246CDE9001080211448FEF77E
:101B200023FF092207211248FEF7FEFE1148C46276
:101B300001460D85008B40F0600008830846008B4D
:101B400040F0080008830846008C40F0010008843B
:101B50000846008C08840846008840F08000088011
:101B60000846008840F0010008807CBD40380240F3
:101B700000000240002000407CB504460D462A4883
:101B8000006840F48030284908602748143800680D
:101B900040F0010024491439086002200321002389
:101BA0000246CDE900100C212048FEF7DDFE03229D
:101BB00002211E48FEF7B8FE032211461B48FEF71D
:101BC000B3FE1B48C46201460D85008B40F06000E7
:101BD00008830846008B40F0080008830846008C04
:101BE00040F0010008840846008C08840846008BF9
:101BF00040F4C04008830846008B40F4006008832E
:101C00000846008C40F0100008840846008C0884C8
:101C10000846008840F0800008800846008840F0B0
:101C2000010008807CBD00004438024000000240F2
:101C30000040014010B5532140F20770FFF79CFFB0
:101C4000532140F20770FFF793FE002000F012F8D6
:101C5000002000F007F8002000F014F8002000F049
:101C600019F810BD00EB80014900014A91637047EB
:101C70000040014000EB80014900014A5163704778
:101C80000040014000EB80014900014A11607047AB
:101C90003418004000EB80014900014A1160704790
:101CA00038180040F0B504460D4616461F46144845
:101CB000006840F001001249086000201049083116
:101CC00008600F4800680F4908400D4908600E4839
:101CD000091D0860081F006820F48020091F0860A3
:101CE000002007490C3108603B4632462946204611
:101CF00000F00CF800210846FFF76AFDF0BD000077
:101D000000380240FFFFF6FE10300024F0B5044614
:101D10000D46002100203D4E366846F480363B4F8C
:101D20003E6001E04E1CB1B2384E366806F4003613
:101D30001EB941F6FF76B142F4DB41F6FF76B142BF
:101D400001D1012060E0314E4036366846F08056C1
:101D50002E4F40373E602E4E366846F440462C4F9C
:101D60003E602A4E0836366846F41446274F083738
:101D70003E60264E366826F08076244F3E6045EA67
:101D800084160127C7EB520746EA074646EA036670
:101D900046F480061D4F3F1D3E603E1F366846F0EC
:101DA00080763F1F3E6000BF184E366806F0007612
:101DB000002EF9D0174E366846F48076154F3E60F7
:101DC0003E46366846F400763E603E46366846F447
:101DD00080663E603E46366846F005063E600B4E25
:101DE0000836366826F00306084F08373E603E4640
:101DF000366846F002063E6000BF044E083636687C
:101E000006F00C06082EF8D1F0BD000000380240A4
:101E100000700040003C024010B50C48008800F003
:101E2000010058B10A490869804700200749143168
:101E300008604FF47A7005491C3108600348008837
:101E400020F001000149088010BD0000100800408A
:101E50009000002070B505460C461048006840F020
:101E600004000E4908600E480560001F04800C48FD
:101E70002038008840F001000949203908800848CE
:101E80002C38008840F0010005492C3908800223D5
:101E90001E2203210846FFF74BFC70BD403802406C
:101EA0002C0800401C49098801F0200109B31A4997
:101EB0008988C8B21949098801F40041C9B917498C
:101EC000098801F4804161B10A2803D00021134A36
:101ED000118020E01149098841F400410F4A118026
:101EE00019E00D2806D10D49098841F480410B4ABB
:101EF000118010E009490988C1F30D01084A5054C6
:101F000006490988491C054A118011460988C729D4
:101F100001DD002111807047001001400800002001
:101F20008401002030380A2801D2012070470020A7
:101F30007047014600BF704700B5FEF72FFCFEF763
:101F400039FCFEF75BFCFEF765FC00BD00B5FEF753
:101F500019FCFEF73BFCFEF745FCFEF767FC00BDF5
:101F60004FF0E021096921F004014FF0E0221161F6
:101F7000C21700EB5272C2F3C702074B1A70194620
:101F8000097801EB4102C2EBC1114FF6FF7202EA80
:101F9000C101024A118070470000002002000020A9
:101FA00070B504464FF4077094FBF0F0C6B24FF4DE
:101FB000077094FBF0F100FB114085B205E04FF48F
:101FC000077000F027F8701EC6B2002EF7D115B1C9
:101FD000284600F01FF870BD01460D4A12784A43AA
:101FE0004FF0E0235A6100229A6101221A6100BF7A
:101FF0004FF0E022106900F001021AB100F48032C3
:10200000002AF5D000224FF0E0231A619A61704750
:102010000000002001460D4A12884A434FF0E02399
:102020005A6100229A6101221A6100BF4FF0E0223A
:10203000106900F001021AB100F48032002AF5D0D4
:1020400000224FF0E0231A619A61704702000020DD
:1020500000BF054A128802F04002002AF9D0C2B23D
:10206000014B9A80704700000010014070B5044693
:1020700000254FF4CA7635E0002C0DDD4B20FFF72C
:10208000F1FD0020FFF7F6FD0020FFF703FE002022
:10209000FFF7F8FD00F02DFC002C20DDFEF786FD9B
:1020A00018B9FEF769FD00B90026FEF77FFD401C58
:1020B00040B93EB900BFFEF779FD0128FBD10126EA
:1020C0006D1C0FE0FEF758FD401C50B94EB900BF23
:1020D000FEF752FD0128FBD1861E6D1C02E0FEF7C3
:1020E00005FC00BFA542C7D100F035FD70BD70B53D
:1020F000044600254FF4CA7635E0002C0DDD00F0D3
:1021000091FC0020FFF7AEFD0020FFF7B3FD00209B
:10211000FFF7C0FD0020FFF7B5FD002C20DDFEF726
:1021200045FD18B9FEF728FD00B90026FEF73EFD73
:10213000401C40B93EB900BFFEF738FD0128FBD175
:1021400001266D1C0FE0FEF717FD401C50B94EB97B
:1021500000BFFEF711FD0128FBD1861E6D1C02E0B9
:10216000FEF7C4FB00BFA542C7D100F0F4FC70BD70
:1021700070B5044600254FF4CA7637E0002C0DDD1B
:102180004B20FFF777FD0020FFF76CFD0020FFF7E5
:1021900081FD0020FFF776FD00F0DDFC002C22DD44
:1021A000FEF704FD18B9FEF7E7FC00B90026FEF7BC
:1021B000FDFC012809D146B900BFFEF7F7FC401C21
:1021C0000028FAD101266D1C10E0FEF7D5FC01288D
:1021D0000BD156B900BFFEF7CFFC401C0028FAD146
:1021E000461E6D1C02E0FEF781FB00BFA542C5D173
:1021F00000F07FFB70BD70B5044600254FF4CA7631
:1022000037E0002C0DDD00F03FFD0020FFF732FD30
:102210000020FFF727FD0020FFF73CFD0020FFF71F
:1022200031FD002C22DDFEF7C1FC18B9FEF7A4FC3D
:1022300000B90026FEF7BAFC012809D146B900BF53
:10224000FEF7B4FC401C0028FAD101266D1C10E0FA
:10225000FEF792FC01280BD156B900BFFEF78CFCAB
:10226000401C0028FAD1461E6D1C02E0FEF73EFB22
:1022700000BFA542C5D100F03CFB70BD70B504465F
:1022800000254FF4CA762BE0002C01DD00F095FD0F
:10229000002C22DDFEF78AFC18B9FEF76DFC00B9B0
:1022A0000026FEF783FC012809D146B900BFFEF7DE
:1022B0007DFC401C0028FAD101266D1C10E0FEF7C1
:1022C0005BFC01280BD156B900BFFEF755FC401C42
:1022D0000028FAD1461E6D1C02E0FEF707FB00BF86
:1022E000A542D1D100F005FB70BD70B504460025B4
:1022F0004FF4CA7637E0002C0DDD4B20FFF7C2FC0F
:102300000020FFF7B7FC0020FFF7ACFC0020FFF730
:10231000C1FC00F0EBFD002C22DDFEF713FC18B928
:10232000FEF7F6FB00B90026FEF7F2FB012809D103
:1023300046B900BFFEF7ECFB401C0028FAD101268D
:102340006D1C10E0FEF7FEFB01280BD156B900BF53
:10235000FEF7F8FB401C0028FAD1461E6D1C02E077
:10236000FEF7C4FA00BFA542C5D100F08AFF70BDD8
:1023700070B5044600254FF4CA7637E0002C0DDD19
:1023800000F04DFE0020FFF77DFC0020FFF772FCFF
:102390000020FFF767FC0020FFF77CFC002C22DD0B
:1023A000FEF7D0FB18B9FEF7B3FB00B90026FEF725
:1023B000AFFB012809D146B900BFFEF7A9FB401CBD
:1023C0000028FAD101266D1C10E0FEF7BBFB0128A6
:1023D0000BD156B900BFFEF7B5FB401C0028FAD15F
:1023E000461E6D1C02E0FEF781FA00BFA542C5D172
:1023F00000F047FF70BD70B5044600254FF4CA7663
:102400002BE0002C01DD00F0A3FE002C22DDFEF706
:1024100099FB18B9FEF77CFB00B90026FEF778FBA4
:10242000012809D146B900BFFEF772FB401C002805
:10243000FAD101266D1C10E0FEF784FB01280BD1B8
:1024400056B900BFFEF77EFB401C0028FAD1461E9D
:102450006D1C02E0FEF74AFA00BFA542D1D100F0A0
:1024600010FF70BD70B5044600254FF4CA7635E004
:10247000002C0DDD4B20FFF70DFC0020FFF7FAFBD1
:102480000020FFF7EFFB0020FFF7FCFB00F0F9FE58
:10249000002C20DDFEF756FB18B9FEF739FB00B91A
:1024A0000026FEF735FB401C40B93EB900BFFEF7E1
:1024B0002FFB0128FBD101266D1C0FE0FEF742FB2C
:1024C000401C50B94EB900BFFEF73CFB0128FBD1C0
:1024D000861E6D1C02E0FEF709FA00BFA542C7D1B7
:1024E00000F004FD70BD70B5044600254FF4CA76B7
:1024F00035E0002C0DDD00F05DFF0020FFF7CAFB8A
:102500000020FFF7B7FB0020FFF7ACFB0020FFF730
:10251000B9FB002C20DDFEF715FB18B9FEF7F8FA21
:1025200000B90026FEF7F4FA401C40B93EB900BFDE
:10253000FEF7EEFA0128FBD101266D1C0FE0FEF735
:1025400001FB401C50B94EB900BFFEF7FBFA012851
:10255000FBD1861E6D1C02E0FEF7C8F900BFA54244
:10256000C7D100F0C3FC70BD70B5044600254FF420
:10257000CA7629E0002C01DD00F0B5FF002C20DD3B
:10258000FEF7E0FA18B9FEF7C3FA00B90026FEF725
:10259000BFFA401C40B93EB900BFFEF7B9FA0128A6
:1025A000FBD101266D1C0FE0FEF7CCFA401C50B9A0
:1025B0004EB900BFFEF7C6FA0128FBD1861E6D1C7E
:1025C00002E0FEF793F900BFA542D3D100F08EFCE4
:1025D00070BD0120FFF70FFE0620FFF784FF0320E8
:1025E000FFF709FE01F0BEF84FF49670FFF7D8FC34
:1025F00001E0FEF77BF9FCE70120FFF7B9FD0620BB
:10260000FFF771FF0320FFF7F6FDFEF76FF901F00A
:10261000A9F80020FFF726FB6420FFF73BFB002012
:10262000FFF730FB0020FFF725FB40F63400FFF7F3
:10263000B7FC01F03FF80020FFF714FB0020FFF784
:1026400029FB0020FFF71EFB6420FFF713FB4FF46C
:102650007A70FFF7A5FC00F0DFFF6420FFF702FBB4
:102660000020FFF717FB0020FFF70CFB0020FFF70F
:1026700001FB40F2DC50FFF793FC01F01BF8002057
:10268000FFF708FB0020FFF7FDFA0020FFF7F2FA42
:102690000020FFF7E7FA4FF47A70FFF781FC00F0B3
:1026A000BBFF0020FFF7F6FA0020FFF7EBFA00204F
:1026B000FFF7E0FA0020FFF7D5FA40F2DC50FFF711
:1026C0006FFC00F0F7FF0020FFF7CCFA0020FFF7C7
:1026D000D1FA0020FFF7DEFA0020FFF7D3FA4FF41B
:1026E0001670FFF75DFC0DE00020FFF7BBFA00203D
:1026F000FFF7D0FA0020FFF7C5FA0020FFF7BAFA7B
:10270000FEF7F4F8F0E70120FFF775FD0620FFF76C
:10271000EAFE0220FFF76FFD0120FFF7AFFD012069
:10272000FFF769FE0120FFF71FFF0120FFF7A6FD5D
:1027300001F018F84FF49670FFF732FC01E0FEF755
:10274000D5F8FCE70120FFF756FD0520FFF710FD47
:102750000120FFF787FE0420FFF788FC0420FFF725
:1027600081FE0120FFF7C3FC0620FFF7BEFD01201C
:10277000FFF778FE0320FFF73EFD00F000F8FEF7BC
:10278000B5F800F0E5FF0020FFF76CFA0020FFF736
:1027900081FA0020FFF776FA0020FFF76BFA40F687
:1027A0003400FFF7FDFB00F085FF0020FFF75AFA29
:1027B0000020FFF76FFA0020FFF764FA0020FFF710
:1027C00059FA4FF44870FFF7EBFB00F025FF0020AB
:1027D000FFF748FA0020FFF75DFA0020FFF752FAF2
:1027E0006420FFF747FA40F2DC50FFF7D9FB00F016
:1027F00061FF0020FFF74EFA0020FFF743FA0020A8
:10280000FFF738FA6420FFF72DFA4FF46170FFF7F5
:10281000C7FBFFF791FB0020FFF73CFA0020FFF712
:1028200031FA0020FFF726FA0020FFF71BFA4FF4D9
:102830002F70FFF7B5FB00F095FF0020FFF712FAAD
:102840000020FFF71FFA0020FFF714FA0020FFF71F
:1028500021FA4FF44870FFF7A3FB00F079FF002046
:10286000FFF700FA0020FFF70DFA0020FFF702FA49
:102870006420FFF70FFA40F2DC50FFF791FB00F005
:1028800071FF0020FFF7EEF90020FFF7F3F90020B9
:10289000FFF700FA6420FFF7F5F94FF42F70FFF708
:1028A0007FFB00F0B9FE0020FFF7DCF90020FFF706
:1028B000E1F90020FFF7EEF90020FFF7E3F94FF40C
:1028C0001670FFF76DFBFFF741FB4FF42F70FFF71A
:1028D00067FB0DE00020FFF7C5F90020FFF7DAF9EC
:1028E0000020FFF7CFF90020FFF7C4F9FDF7FEFF46
:1028F000F0E770B5FEF726F90546FEF709F904463C
:102900004B20FFF7AFF90020FFF7C4F90020FFF7D5
:10291000B9F90020FFF7AEF905B93CB340F29710C2
:10292000854201D1844221D01DB940F297108442E2
:102930001CD040F29710854200D1BCB1681C18B978
:1029400040F29710844211D040F29710854201D195
:10295000012C0BD0012D03D140F29710844205D0F9
:1029600040F29710854203D1601C08B900F054FE74
:102970000DB9012C06D0681C00B91CB1681CE8B95F
:10298000012C1BD1FDF7B2FF3DB9012C05D1FDF79C
:1029900005FFFDF71BFFFDF749FF681C30B92CB997
:1029A000FDF714FFFDF72AFFFDF740FF681C28B96B
:1029B000012C03D1FDF70AFFFDF738FF0DB9601CAC
:1029C00030B1012D00D11CB1012D1DD1601CD8B931
:1029D000FDF78CFF3DB9601C28B9FDF7DFFEFDF760
:1029E000F5FEFDF70BFF012D06D12CB9FDF7D6FE44
:1029F000FDF704FFFDF71AFF012D05D1601C18B982
:102A0000FDF7CCFEFDF7FAFE012D03D1012C01D11B
:102A100000F00CFE681C18B9601C08B900F028FE14
:102A2000002070BD70B5FEF78DF80546FEF770F812
:102A300004460020FFF716F90020FFF72BF90020CD
:102A4000FFF720F90020FFF715F905B93CB340F274
:102A50009710854201D1844221D01DB940F29710D0
:102A600084421CD040F29710854200D1BCB1681C52
:102A700018B940F29710844211D040F29710854265
:102A800001D1012C0BD0012D03D140F297108442CB
:102A900005D040F29710854203D1601C08B900F0C0
:102AA000BBFD0DB9012C06D0681C00B91CB1681C17
:102AB000E8B9012C1BD1FDF719FF3DB9012C05D157
:102AC000FDF76CFEFDF782FEFDF7B0FE681C30B925
:102AD0002CB9FDF77BFEFDF791FEFDF7A7FE681C04
:102AE00028B9012C03D1FDF771FEFDF79FFE0DB94A
:102AF000601C30B1012D00D11CB1012D1DD1601C15
:102B0000D8B9FDF7F3FE3DB9601C28B9FDF746FEC4
:102B1000FDF75CFEFDF772FE012D06D12CB9FDF725
:102B20003DFEFDF76BFEFDF781FE012D05D1601C1A
:102B300018B9FDF733FEFDF761FE012D03D1012C1D
:102B400001D100F073FD681C18B9601C08B900F0D1
:102B50008FFD002070BD70B5FDF7F4FF0546FDF751
:102B6000D7FF04460020FFF77DF80020FFF792F81A
:102B70000020FFF787F84B20FFF77CF805B93CB33E
:102B800040F29710854201D1844221D01DB940F214
:102B9000971084421CD040F29710854200D1BCB1FE
:102BA000681C18B940F29710844211D040F2971077
:102BB000854201D1012C0BD0012D03D140F2971099
:102BC000844205D040F29710854203D1601C08B9B9
:102BD00000F070FD0DB9012C06D0681C00B91CB1C5
:102BE000681CE8B9012C1BD1FDF780FE3DB9012C12
:102BF00005D1FDF7C7FDFDF7DDFDFDF7F3FD681C11
:102C000030B92CB9FDF7BEFDFDF7ECFDFDF702FE76
:102C1000681C28B9012C03D1FDF7B4FDFDF7E2FDD6
:102C20000DB9601C30B1012D00D11CB1012D1DD199
:102C3000601CD8B9FDF75AFE3DB9601C28B9FDF7F4
:102C4000A1FDFDF7B7FDFDF7E5FD012D06D12CB97E
:102C5000FDF7B0FDFDF7C6FDFDF7DCFD012D05D14B
:102C6000601C18B9FDF7A6FDFDF7D4FD012D03D1B9
:102C7000012C01D100F028FD681C18B9601C08B9AE
:102C800000F044FD002070BD70B5FDF75BFF054608
:102C9000FDF73EFF04460020FEF7E4FF0020FEF7AC
:102CA000F9FF0020FEF7EEFF0020FEF7E3FF05B975
:102CB0003CB340F29710854201D1844221D01DB926
:102CC00040F2971084421CD040F29710854200D108
:102CD000BCB1681C18B940F29710844211D040F280
:102CE0009710854201D1012C0BD0012D03D140F268
:102CF0009710844205D040F29710854203D1601CA2
:102D000008B900F0D7FC0DB9012C06D0681C00B939
:102D10001CB1681CE8B9012C1BD1FDF7E7FD3DB9DA
:102D2000012C05D1FDF72EFDFDF744FDFDF75AFD01
:102D3000681C30B92CB9FDF725FDFDF753FDFDF7F3
:102D400069FD681C28B9012C03D1FDF71BFDFDF7B7
:102D500049FD0DB9601C30B1012D00D11CB1012D10
:102D60001DD1601CD8B9FDF7C1FD3DB9601C28B963
:102D7000FDF708FDFDF71EFDFDF74CFD012D06D109
:102D80002CB9FDF717FDFDF72DFDFDF743FD012DD6
:102D900005D1601C18B9FDF70DFDFDF73BFD012DB8
:102DA00003D1012C01D100F08FFC681C18B9601C04
:102DB00008B900F0ABFC002070BD70B5FDF7C2FE95
:102DC0000546FDF7A5FE04460020FEF74BFF002058
:102DD000FEF760FF5020FEF755FF0020FEF74AFF88
:102DE00005B93CB340F29710854201D1844221D00D
:102DF0001DB940F2971084421CD040F297108542D2
:102E000000D1BCB1681C18B940F29710844211D0AF
:102E100040F29710854201D1012C0BD0012D03D136
:102E200040F29710844205D040F29710854203D1BA
:102E3000601C08B900F03EFC0DB9012C06D0681CDE
:102E400000B91CB1681CE8B9012C1BD1FDF74EFD7F
:102E50003DB9012C05D1FDF795FCFDF7ABFCFDF765
:102E6000C1FC681C30B92CB9FDF78CFCFDF7BAFC2D
:102E7000FDF7D0FC681C28B9012C03D1FDF782FCBA
:102E8000FDF7B0FC0DB9601C30B1012D00D11CB1B3
:102E9000012D1DD1601CD8B9FDF728FD3DB9601C7E
:102EA00028B9FDF76FFCFDF785FCFDF7B3FC012D9C
:102EB00006D12CB9FDF77EFCFDF794FCFDF7AAFCCA
:102EC000012D05D1601C18B9FDF774FCFDF7A2FCBB
:102ED000012D03D1012C01D100F0F6FB681C18B9BB
:102EE000601C08B900F012FC002070BD70B5FDF741
:102EF0005DFE0546FDF740FE04460020FEF7B2FEEB
:102F00000020FEF7C7FE4B20FEF7BCFE0020FEF7B8
:102F1000B1FE05B93CB340F29710854201D184421D
:102F200021D01DB940F2971084421CD040F2971076
:102F3000854200D1BCB1681C18B940F29710844298
:102F400011D040F29710854201D1012C0BD0012DF8
:102F500003D140F29710844205D040F29710854289
:102F600003D1601C08B900F0F3FB0DB9012C06D0A9
:102F7000681C00B91CB1681CE8B9012C1BD1FDF715
:102F8000B5FC3DB9012C05D1FDF714FCFDF72AFC79
:102F9000FDF74CFC681C30B92CB9FDF7FFFBFDF7C1
:102FA00021FCFDF743FC681C28B9012C03D1FDF777
:102FB00019FCFDF73BFC0DB9601C30B1012D00D1AF
:102FC0001CB1012D1DD1601CD8B9FDF78FFC3DB996
:102FD000601C28B9FDF7E2FBFDF7ECFBFDF726FCD2
:102FE000012D06D12CB9FDF7D9FBFDF7E3FBFDF769
:102FF000F9FB012D05D1601C18B9FDF7CFFBFDF7DA
:10300000D9FB012D03D1012C01D100F05DFB681C1F
:1030100018B9601C08B900F009FB002070BD70B53C
:10302000FDF7C4FD0546FDF7A7FD04460020FEF7A9
:1030300019FE0020FEF72EFE0020FEF723FE0020E2
:10304000FEF718FE05B93CB340F29710854201D156
:10305000844221D01DB940F2971084421CD040F226
:103060009710854200D1BCB1681C18B940F2971086
:10307000844211D040F29710854201D1012C0BD02F
:10308000012D03D140F29710844205D040F29710F1
:10309000854203D1601C08B900F05AFB0DB9012C20
:1030A00006D0681C00B91CB1681CE8B9012C1BD102
:1030B000FDF71CFC3DB9012C05D1FDF77BFBFDF7AD
:1030C00091FBFDF7B3FB681C30B92CB9FDF766FB2B
:1030D000FDF788FBFDF7AAFB681C28B9012C03D17A
:1030E000FDF780FBFDF7A2FB0DB9601C30B1012D8F
:1030F00000D11CB1012D1DD1601CD8B9FDF7F6FB24
:103100003DB9601C28B9FDF749FBFDF753FBFDF7FE
:103110008DFB012D06D12CB9FDF740FBFDF74AFBD5
:10312000FDF760FB012D05D1601C18B9FDF736FBDA
:10313000FDF740FB012D03D1012C01D100F0C4FAB1
:10314000681C18B9601C08B900F070FA002070BD46
:1031500070B5FDF72BFD0546FDF70EFD044600207A
:10316000FEF780FD5020FEF795FD0020FEF78AFD5A
:103170000020FEF77FFD05B93CB340F29710854271
:1031800001D1844221D01DB940F2971084421CD055
:1031900040F29710854200D1BCB1681C18B940F2CA
:1031A0009710844211D040F29710854201D1012C32
:1031B0000BD0012D03D140F29710844205D040F28C
:1031C0009710854203D1601C08B900F0C1FA0DB90F
:1031D000012C06D0681C00B91CB1681CE8B9012C90
:1031E0001BD1FDF783FB3DB9012C05D1FDF7E2FAB8
:1031F000FDF7F8FAFDF71AFB681C30B92CB9FDF79A
:10320000CDFAFDF7EFFAFDF711FB681C28B9012C88
:1032100003D1FDF7E7FAFDF709FB0DB9601C30B1EA
:10322000012D00D11CB1012D1DD1601CD8B9FDF7B5
:103230005DFB3DB9601C28B9FDF7B0FAFDF7BAFA9D
:10324000FDF7F4FA012D06D12CB9FDF7A7FAFDF729
:10325000B1FAFDF7C7FA012D05D1601C18B9FDF7C9
:103260009DFAFDF7A7FA012D03D1012C01D100F041
:103270002BFA681C18B9601C08B900F0D7F90020B7
:1032800070BD70B5FDF792FC0546FDF775FC044670
:103290000020FEF7E7FC4B20FEF7FCFC0020FEF7C9
:1032A000F1FC0020FEF7E6FC05B93CB340F29710B4
:1032B000854201D1844221D01DB940F29710844249
:1032C0001CD040F29710854200D1BCB1681C18B9DF
:1032D00040F29710844211D040F29710854201D1FC
:1032E000012C0BD0012D03D140F29710844205D060
:1032F00040F29710854203D1601C08B900F032FA01
:103300000DB9012C06D0681C00B91CB1681CE8B9C5
:10331000012C1BD1FDF7EAFA3DB9012C05D1FDF7CF
:1033200031FAFDF753FAFDF775FA681C30B92CB97C
:10333000FDF728FAFDF74AFAFDF760FA681C28B98C
:10334000012C03D1FDF71EFAFDF740FA0DB9601C00
:1033500030B1012D00D11CB1012D1DD1601CD8B997
:10336000FDF7C4FA3DB9601C28B9FDF72FFAFDF747
:1033700045FAFDF74FFA012D06D12CB9FDF702FAF7
:10338000FDF73CFAFDF746FA012D05D1601C18B98E
:10339000FDF734FAFDF73EFA012D03D1012C01D1DE
:1033A00000F0B4F9681C18B9601C08B900F060F9A5
:1033B000002070BD70B5FDF7F9FB0546FDF7DCFB9D
:1033C00004460020FEF74EFC0020FEF763FC0020C0
:1033D000FEF758FC0020FEF74DFC05B93CB340F267
:1033E0009710854201D1844221D01DB940F2971037
:1033F00084421CD040F29710854200D1BCB1681CB9
:1034000018B940F29710844211D040F297108542CB
:1034100001D1012C0BD0012D03D140F29710844231
:1034200005D040F29710854203D1601C08B900F026
:1034300099F90DB9012C06D0681C00B91CB1681CA3
:10344000E8B9012C1BD1FDF751FA3DB9012C05D18A
:10345000FDF798F9FDF7BAF9FDF7DCF9681C30B90A
:103460002CB9FDF78FF9FDF7B1F9FDF7C7F9681C25
:1034700028B9012C03D1FDF785F9FDF7A7F90DB99E
:10348000601C30B1012D00D11CB1012D1DD1601C7B
:10349000D8B9FDF72BFA3DB9601C28B9FDF796F9AC
:1034A000FDF7ACF9FDF7B6F9012D06D12CB9FDF702
:1034B00069F9FDF7A3F9FDF7ADF9012D05D1601C00
:1034C00018B9FDF79BF9FDF7A5F9012D03D1012CE2
:1034D00001D100F01BF9681C18B9601C08B900F094
:1034E000C7F8002070BD70B5FDF760FB0546FDF71D
:1034F00043FB04460020FEF7B5FB0020FEF7CAFBA5
:103500005020FEF7BFFB0020FEF7B4FB05B93CB32B
:1035100040F29710854201D1844221D01DB940F27A
:10352000971084421CD040F29710854200D1BCB164
:10353000681C18B940F29710844211D040F29710DD
:10354000854201D1012C0BD0012D03D140F29710FF
:10355000844205D040F29710854203D1601C08B91F
:1035600000F000F90DB9012C06D0681C00B91CB19F
:10357000681CE8B9012C1BD1FDF7B8F93DB9012C45
:1035800005D1FDF7FFF8FDF721F9FDF743F9681CB8
:1035900030B92CB9FDF7F6F8FDF718F9FDF72EF95B
:1035A000681C28B9012C03D1FDF7ECF8FDF70EF9E2
:1035B0000DB9601C30B1012D00D11CB1012D1DD100
:1035C000601CD8B9FDF792F93DB9601C28B9FDF728
:1035D000FDF8FDF713F9FDF71DF9012D06D12CB902
:1035E000FDF7D0F8FDF70AF9FDF714F9012D05D123
:1035F000601C18B9FDF702F9FDF70CF9012D03D194
:10360000012C01D100F082F8681C18B9601C08B9BF
:1036100000F02EF8002070BD00B5FDF7BFF8FDF7F3
:10362000D5F8FDF7EBF8FDF701F900BD00200C49D6
:10363000086001200B49C1F89802002008491031A8
:103640000860091F086008490860091F08600449EC
:103650001C39086001200549C1F8A002704700002C
:103660009C8240420080404294024042000040421E
:1036700000200C4908600C49C1F898020949103132
:1036800008600120091F0860002008490860012027
:10369000091F0860002003491C3908600449C1F86B
:1036A000A00270479C824042008040429402404207
:1036B0000000404200B5FDF765F8FDF77BF8FDF727
:1036C00091F8FDF7A7F800BD00200C4908600C49EF
:1036D000C1F8980201200949103108600020091F33
:1036E00008600120074908600020091F086003499D
:1036F0001C3908600449C1F8A00270479C8240420E
:1037000000804042940240420000404201200C49A7
:10371000086000200B49C1F898020949103108607F
:10372000091F086008490860091F08600120044952
:103730001C39086000200549C1F8A002704700004C
:103740009C8240420080404294024042000040423D
:1037500000B5FDF723F8FDF72DF8FDF743F8FDF769
:1037600065F800BD00B5FDF70DF8FDF72FF8FDF782
:1037700045F8FDF74FF800BD0723022208214FF45A
:10378000A870FEF78FFAA820FEF7EAFB4FF4E131AC
:10379000542000F0E1FBFDF795FAFDF754F9FDF731
:1037A00051F812484168542088471DE00020FEF778
:1037B00059FA0020FEF76EFA0020FEF763FA0020A7
:1037C000FEF758FAFDF792F82846FDF7F3FA04469B
:1037D000214607A0FCF77CFD2146284600F012F8A0
:1037E0004FF49670FEF7DCFBE0E70000900000204D
:1037F0006B65796E756D3D25640A000001460868A9
:103800007047000070B504460D460120FE4908606F
:10381000C820FEF7C5FB0020FC49C1F88C02A06D52
:1038200001280BD1FA490860FA49C1F88402F64927
:103830000860C820FEF7B4FBFEF784FFEC200059B7
:10384000012806D1F0490860C820FEF7A9FBFEF761
:10385000D3FEE8200059012806D1EB490860C820B2
:10386000FEF79EFBFEF7B5FEF0200059012806D1B9
:10387000E5490860C820FEF793FBFEF744FF206887
:10388000012801D1FEF75EFFDC20005901281ED17E
:10389000DF490860C820FEF783FB0120FEF7ABFC80
:1038A0000120FEF722FD0620FEF7DCFD0120FEF7D9
:1038B0005FFC0420FEF719FD0420FEF759FC0120EF
:1038C000FEF713FD0220FEF7D1FBFEF758FFFC20A8
:1038D0000059012820D1CE490860CE49C1F88402A0
:1038E000C9490860C820FEF75BFB0120FEF783FC96
:1038F0000120FEF7F8FD0420FEF7B4FD0620FEF7D8
:1039000037FC0420FEF7F1FC0320FEF7AFFB01209B
:10391000FEF7EBFCFEF733FF012D7DD18C20005923
:1039200001281ED1B8490860C820FEF739FB0120E4
:10393000FEF71EFC0520FEF795FD0620FEF718FC9D
:103940000620FEF7D2FC0220FEF7CDFD0520FEF793
:103950008DFB0220FEF74FFC0120FEF709FDFEF76C
:103960000EFF2069012818D1A9490860C820FEF778
:1039700017FB0120FEF73FFC0120FEF7B4FD0420F9
:10398000FEF770FD0120FEF7F3FB0520FEF7ADFC0E
:103990000220FEF7EDFBFEF7F2FE606901281CD164
:1039A0009B49091D0860C820FEF7FAFA0120FEF7BE
:1039B00022FC0120FEF797FD0620FEF753FD0820AC
:1039C000FEF793FC0220FEF78EFD0320FEF7D0FBEE
:1039D0000120FEF78AFCFEF7D2FEE06801282AD11A
:1039E0008B49091D0860C820FEF7DAFA0120FEF7AE
:1039F00002FC0320FEF7BCFB0120FEF733FD022092
:103A0000FEF734FB0420FEF72DFD0320FEF7F3FB49
:103A10000120FEF768FD00E07BE20320FEF726FBB5
:103A20000520FEF7A5FC0220FEF7E5FB0120FEF7CE
:103A30005CFCFEF7A4FEA068012815D1744908605B
:103A4000C820FEF7ADFA0120FEF7D5FB0520FEF7F2
:103A50008FFB0520FEF706FD0520FEF789FC0220FE
:103A6000FEF745FBFEF78BFE6068012819D1684917
:103A7000091D0860C820FEF793FA0120FEF7BBFB82
:103A80000620FEF775FB0720FEF7ECFC0820FEF78A
:103A90002CFC0120FEF727FD0320FEF7E7FAFEF7D6
:103AA0006EFE206A01281CD15949091D0860C820F2
:103AB000FEF776FA0120FEF79EFB0120FEF715FCCB
:103AC0000120FEF7CFFC0620FEF752FB0120FEF797
:103AD0000CFC0120FEF7C6FC0320FEF7C7FAFEF738
:103AE0004EFE206C012810D14949091D0860C820EC
:103AF000FEF756FA0120FEF77EFB0620FEF738FBA4
:103B00000320FEF7B3FAFEF73AFE206E012815D126
:103B10003F490860C820FEF743FA0120FEF76BFB1F
:103B20000120FEF7E0FC0620FEF722FB0320FEF753
:103B30009DFA0120FEF7D9FBFEF721FED4F88000A4
:103B4000012825D13249091D0860C820FEF728FA4E
:103B50000120FEF750FB0120FEF7C5FC0220FEF716
:103B600081FC0120FEF704FB0220FEF7BEFB0420CF
:103B7000FEF7FEFA0220FEF7B6FC0120FEF7F8FA87
:103B80000320FEF7F5FB0320FEF770FAFEF7F7FDC2
:103B9000D4F8A00001281BD11D490860C820FEF7F9
:103BA000FFF90120FEF727FB0120FEF79CFC042013
:103BB000FEF758FC0620FEF7DBFA0420FEF795FB23
:103BC0000320FEF753FA0120FEF78FFBFEF7D7FD27
:103BD000D4F8C000012826D10D49091D0860C8206D
:103BE000FEF7DEF90120FEF706FB0120FEF77BFC65
:103BF0000520FEF737FC0620FEF7BAFA0520FEF78F
:103C000074FB032008E000008C02414200004142A6
:103C10008002424200004242FEF728FA0120FEF7ED
:103C2000A7FBFEF7ACFDD4F8E000012825D1C84978
:103C300008600020C749C1F88C02C820FEF7B0F91F
:103C40000120FEF7D8FA0120FEF74DFC0620FEF712
:103C500009FC0120FEF749FB0620FEF789FA012046
:103C6000FEF700FC0620FEF740FB0320FEF7FEF9FE
:103C70000120FEF73AFBFEF782FD606A012815D1AC
:103C8000B3490860C820FEF78BF90120FEF7B3FAAC
:103C90000620FEF76DFA0120FEF727FB0120FEF754
:103CA000E1FB0320FEF7E2F9FEF769FD84200059ED
:103CB000012818D1A6490860C820FEF771F9012033
:103CC000FEF799FA0620FEF753FA0320FEF7CAFB27
:103CD0000220FEF70AFB0320FEF7C8F90120FEF7D9
:103CE00004FBFEF74CFDE4200059012821D198493E
:103CF00008609849C1F88C02C820FEF751F90120EC
:103D0000FEF779FA0620FEF733FA0720FEF7AAFB42
:103D10000220FEF7EAFA0120FEF7A8F90420FEF7D8
:103D2000E4FA0220FEF7E3F90120FEF7DEFAFEF7DF
:103D300026FDA06E012816D18549091F0860C820FC
:103D4000FEF72EF90120FEF756FA0120FEF7CBFB15
:103D50000520FEF70DFA0220FEF788F90120FEF794
:103D6000C4FAFEF70CFDA8200059012816D17849A5
:103D7000091F0860C820FEF713F90120FEF73BFA7F
:103D80000520FEF7F5F90520FEF76CFB0520FEF790
:103D9000ACFA0220FEF76AF9FEF7F1FCE06C0128AC
:103DA0000CD16B490860C820FEF7FAF80120FEF735
:103DB00022FA0320FEF7DCF9FEF7E1FCCC200059E3
:103DC00001281BD162490860C820FEF7E9F80120EC
:103DD000FEF711FA0120FEF786FB0520FEF742FBF5
:103DE0000520FEF7C5F90520FEF77FFA0220FEF751
:103DF0003DF90120FEF779FAFEF7C1FC206F01289A
:103E000016D15349091F0860C820FEF7C9F80120E0
:103E1000FEF7F1F90120FEF7ABF90120FEF722FBD6
:103E20000220FEF7A5F90120FEF75FFAFEF7A7FCD6
:103E3000B0200059012819D14549091F0860C82040
:103E4000FEF7AEF80120FEF7D6F90120FEF74BFB96
:103E50000420FEF707FB0120FEF78AF90520FEF794
:103E600044FA0220FEF784F9FEF789FC606B012812
:103E700012D137490860C820FEF792F80120FEF7FA
:103E8000BAF90120FEF731FA0120FEF7EBFA032020
:103E9000FEF76EF9FEF773FC94200059012818D143
:103EA0002B490860C820FEF77BF80120FEF7A3F934
:103EB0000120FEF718FB0220FEF7D4FA0120FEF7DE
:103EC00057F90320FEF711FA0220FEF751F9FEF729
:103ED00056FCF420005901281BD11D4908601D49DA
:103EE000C1F88C02C820FEF75BF80120FEF783F9C9
:103EF0000120FEF7F8FA0620FEF7B4FA0620FEF7D6
:103F0000F4F90320FEF734F90120FEF7EEF9FEF78D
:103F100036FC022D1BD16068012818D1A068012849
:103F200015D1FEF725F90120FEF7DFF90820FEF78D
:103F300099FA0220FEF7D9F90120FEF797F805203B
:103F4000FEF7D3F90220FEF791F8FEF718FC70BDDA
:103F50008402424200004142F0B52DED028B83B055
:103F600005460E46384905FB01F000EE100AF8EE52
:103F7000400A300100EE100AB8EE400A80EE801AC6
:103F8000B0EE418ABCEEC80A10EE100A84B200EE10
:103F9000104AB8EE400A38EE400AF3EE000A20EE6E
:103FA000200ABCEEC00A10EE107A4FF6FF7000EA4D
:103FB0000414E01984B22548006840F00100234948
:103FC000086022481430006840F010001F49143186
:103FD00008600120022100230A46CDE900104FF4B9
:103FE000C0611B48FCF7C0FC072209211848FCF7F8
:103FF0009BFC07220A211648FCF796FC1548048111
:10400000808920F40040134988810846808940F067
:10401000080088810846808940F0040088810846AD
:10402000808940F020008881022325220321084650
:10403000FDF77EFB0748808940F4005005498881E0
:1040400003B0BDEC028BF0BD40420F00303802409F
:10405000000002400010014030B595B0054613AB9A
:1040600012AA09A9284600F03FFA044614B12046D6
:1040700015B030BD0020149026E0224909689DF853
:10408000502001EBC20113AB11AA486801A900F04E
:104090002BFA04460CB12046EAE709A901A800F072
:1040A000DDFC60B99DF844009DF84810884201DDB0
:1040B0000220DDE79DF85000124988750AE09DF85E
:1040C0005000401CC0B214900E48007D9DF8501066
:1040D0008842D2DC00BF0B48007D9DF8501088421A
:1040E00001D10420C4E714A9284600F0DDFA0446F3
:1040F0000CB12046BCE79DF85000024948750020ED
:10410000B6E70000900000202DE9F0419AB09C48ED
:10411000847D007DA04202DC1AB0BDE8F0819849A0
:10412000096801EBC40106AB07AA486808A900F0BA
:10413000DBF908A993A0FCF7CBF8002644E09048EF
:10414000008B0121B1400840D8B122218FA0FCF79B
:10415000BFF8304600F02EFB894924314718394614
:104160008BA0FCF7B5F8222188A0FCF7B1F8304607
:1041700000F020FB82492431084410A941F82600B0
:1041800018E0304600F016FB7D492431085810A98C
:1041900041F826007A48C07D30B910A850F82610A2
:1041A0007CA0FCF795F805E010A850F826107AA03E
:1041B000FCF78EF89DF81C00401EB04202D078A09B
:1041C000FCF786F8701CC6B29DF81C008642B6DB70
:1041D00074A0FCF77DF800F03DFB6948407D0B289A
:1041E0000DD2DFE800F0060D151E27323F4E5F723C
:1041F00087006349096851F834008047054690E01C
:104200005F4A126852F8341010988847054688E0D3
:104210005B4B1B6853F83420DDE9100190470546DD
:104220007FE0574F3F6857F8343010A807C89847C9
:10423000054676E0DFF848C1DCF800C05CF8347071
:1042400010A80FC8B84705466BE01498DFF830C1D6
:104250000090DCF800C05CF8347010A80FC8B847B4
:1042600005465EE0DDE91401DFF814C1CDE9000187
:10427000DCF800C05CF8347010A80FC8B8470546D9
:104280004FE0DDE914121698DFF8F4C0CDE9001212
:104290000290DCF800C05CF8347010A80FC8B84772
:1042A00005463EE0DDE91423DDE91610DFF8D0C055
:1042B000CDE90023CDE90210DCF800C05CF83470D1
:1042C00010A80FC8B84705462BE0DDE91523DDE946
:1042D0001710CDE90123CDE903101498DFF8A0C031
:1042E0000090DCF800C05CF8347010A80FC8B84724
:1042F000054616E0DDE91623DDE91810CDE90223B5
:10430000CDE90410DDE91401DFF874C0CDE9000146
:10431000DCF800C05CF8347010A80FC8B847054638
:1043200000BF00BF00F056FA9DF8180001280CD11C
:104330001348C07D20B929461BA0FBF7C9FF07E041
:1043400029461BA0FBF7C4FF02E018A0FBF7C0FF43
:104350000B4890F8EC0088B10948D0F8F0000A2129
:10436000B0FBF1F201FB12070548D0F8F000B0FBFA
:10437000F1F83A46414611A0FBF7AAFF00BFCBE691
:10438000900000200D0A257328000000256300001E
:1043900025730000256C640030582558000000008B
:1043A0002C000000290000003D256C753B0D0A0023
:1043B0003D305825583B0D0A0000000046756E63DD
:1043C00074696F6E2052756E2054696D653A25646C
:1043D0002E2531646D730D0A00000000F0B5034610
:1043E000154600200022002600245BE01F782C2FB9
:1043F00001D104B901221F78292F01D01F780FB9EC
:1044000004B950E0002E3AD11F78302F02DB1F781C
:10441000392F17DD1F782D2F14D01F782B2F11D097
:104420001F78612F02DB1F78662F0BDD1F78412F6D
:1044300002DB1F78462F05DD1F78582F02D01F782A
:10444000782F0CD102B12EE01F78612F03DB1F788B
:10445000203F0F7001E01F780F70491C1FE01F788C
:10446000222F04D102B11EE00126012417E01F789B
:10447000202F14D01F782C2F11D0FF2613E01F7887
:10448000222F00D1002402B10DE044B11F785C2F2F
:1044900002D15B1C471CF8B21F780F70491C471CE7
:1044A000F8B25B1CA2E700BF00270F702E70F0BDB2
:1044B00010B50446002010700BE020780870641CD2
:1044C000491C1078401C10701078984201DB0120C4
:1044D00010BD2078202802D020780028EDD10020BF
:1044E000087000BFF4E700002DE9FF4F85B080465B
:1044F00089460027002004900390012002904FF08D
:10450000000B002544461DE02078202816D005F039
:104510007F00052812DA0DB945F0800505F07F000F
:10452000042803D120782A2800D00EE0207805F056
:104530007F010DF80100681CC5B202E0852D00D195
:1045400003E0641C20780028DED100BF8DB100207C
:1045500005F07F010DF8010051A1684600F07EFAD8
:1045600018B900210898017002E001210898017033
:1045700000254FF0000A444614E0641C0AF10100D3
:1045800000F0FF0A2078202802D020782A2809D1BC
:10459000204600F0D5F90646282E03D02A2E01D059
:1045A000CDF810A02078282802D020780028E4D167
:1045B0004446049810B10498401C04444FF0000A8B
:1045C000002654E0207810B94FF0010A50E020781E
:1045D000282803D116B9781CC7B213E020782928FF
:1045E00008D13EB917B1781EC7B201E04FF0010AF9
:1045F00047B93DE02078222804D10EB9012000E01F
:104600000020064647B9207820282FD0207889F846
:10461000000009F1010929E020782C2804D10120AB
:104620000290681CC5B214E02078202811D02078B0
:1046300028280ED04DB9BBF1050F06DA20780DF809
:104640000B000BF1010000F0FF0B0298401CC0B200
:104650000290012F0AD10298022807D10298401C2B
:10466000C0B202900398401CC0B20390641CA9E73A
:1046700000BF0398012809D100200DF80B0008A104
:10468000684600F0EBF908B90020039007990398F9
:104690000870002089F80000504609B0BDE8F08F8E
:1046A000766F6964000000002DE9F043B5B005465F
:1046B0000F460024002604E000213D488155701C6F
:1046C000C6B20A2EF8DB06E06D1C287818B9012066
:1046D00035B0BDE8F08328782828F5D16D1C61E05D
:1046E00034AA69462846FFF779FE064635449DF808
:1046F000D00020B1012827D0FF284CD149E09DF8F7
:10470000000000B333A9684600F025F906460EB153
:104710000220DDE7204600F04DF825490A31339AA2
:104720000A50A1F12400008B0121A14088432049B7
:104730001A39088304211E480155601CC4B20A2C92
:1047400001DD0320C4E726E0684600F0A3F9401C21
:1047500000F0FF08204600F02DF815490A3100EB63
:1047600001094946684600F08AF911481A38018B58
:104770000120A040014388B20D491A3908830C4832
:1047800000F80480601CC4B20A2C01DD03209FE7FE
:1047900001E002209CE700BF2878292801D0287872
:1047A00000B900E09CE700BF3C70002090E70000EB
:1047B000AA00002002460020002105E0044B5B5CBB
:1047C0000344D8B24B1CD9B29142F7DB70470000CA
:1047D000AA0000200D48008800F0010040B10C48FC
:1047E000D0F8F0004FF6FF7108440949C1F8F00015
:1047F0000748D0F8F0000549143109680844044915
:10480000C1F8F0000846D0F8F000704710080040EA
:104810009000002010B5044604EBC40000EB041027
:104820000122C2EB800081B24FF47A70FDF712FBD7
:1048300001200149C87510BD9000002010B5024646
:10484000012000E050430B00A1F10104E1B2F9D1D5
:1048500010BD00000948008820F0010007490880C9
:104860004FF6FF7005491C310860002003491431E0
:1048700008600349C1F8F0007047000010080040CC
:104880009000002070B51D48008800F4004000280A
:1048900033D01A48057800201949485519488168CD
:1048A0001748884704461CB91649C868804721E064
:1048B000134800F0FBF80546012D00D02C46CCB182
:1048C000012C06D0022C08D0032C0AD0042C10D1C5
:1048D0000BE00DA0FBF7FCFC0BE00EA0FBF7F8FCD7
:1048E00007E00FA0FBF7F4FC03E010A0FBF7F0FCDF
:1048F00000BF00BF00200149088070BD08000020F3
:104900008401002090000020BAAFCAFDB4EDCEF3C0
:10491000210D0A00B2CECAFDB4EDCEF3210D0A007E
:10492000B2CECAFDCCABB6E0210D0A00CEB4D5D2D2
:10493000B5BDC6A5C5E4B5C4BAAFCAFD210D0A0010
:104940000146491C00E0491C0878202801D10029B3
:10495000F9D1087870472DE9F04F05460F4600263B
:104960004FF00A09B3462C460020386034E0207826
:10497000392802DC2078302811DA28782D2802D056
:1049800028782B2800D156B12078462802DC2078E0
:10499000412804DA2078582817D1012E15D1207823
:1049A000412801DB4FF0100928782D2803D14FF062
:1049B000020B6D1C0FE028782B2803D14FF0010B60
:1049C0006D1C08E0701CC6B205E0207800B904E058
:1049D0000120BDE8F08F641CC9E700BF2C46B9F187
:1049E000100F0FD1032E01DA0220F2E720783028D1
:1049F00006D16078582803D1A41CB01EC6B204E0CA
:104A00000320E6E70EB90420E3E71BE00EB1701EB9
:104A1000C6B22078392806DC2078302803DB2078DD
:104A2000A0F1300A02E02078A0F1370A314648466A
:104A3000FFF704FF39680AFB00103860641C207817
:104A400000B900E0E2E700BFBBF1020F04D1386813
:104A5000C0F10008C7F800800020BAE702460AE06B
:104A600010780B78984201D001207047107800B977
:104A700002E0521C491CF3E700BF0020F5E706E006
:104A800002780A70027802B902E0401C491CF7E77C
:104A900000BF70470146002005E00A7802B903E034
:104AA000421CD0B2491CF8E700BF704710B58CB06B
:104AB00004461E230BAA03A92046FFF7F9FC009029
:104AC000009810B101200CB010BD9DF82C000444DA
:104AD00000200B900EE040489DF82C2050F822104A
:104AE00003A8FFF7BBFF00B908E09DF82C00401CAD
:104AF000C0B20B909DF82C000728ECD300BF9DF8A6
:104B00002C00072863D2DFE800F004053C5E6564F2
:104B1000630000BF31A0FBF7DBFB31A0FBF7D8FB44
:104B20003FA0FBF7D5FB4EA0FBF7D2FB5CA0FBF749
:104B3000CFFB6BA0FBF7CCFB79A0FBF7C9FB87A0F1
:104B4000FBF7C6FB8CA0FBF7C3FB94A0FBF7C0FBF5
:104B500098A0FBF7BDFB9DA0FBF7BAFBA2A0FBF75B
:104B6000B7FBA8A0FBF7B4FBB4A0FBF7B1FBC1A057
:104B7000FBF7AEFBCCA0FBF7ABFBD8A0FBF7A8FB89
:104B8000A2E216A0FBF7A4FBE4A0FBF7A1FB002028
:104B90000B900EE0F14800689DF82C2000EBC2005D
:104BA0004168EFA0FBF794FB9DF82C00401CC0B2BD
:104BB0000B90EA48007D9DF82C108842EADC07A0A3
:104BC000FBF786FB80E205A0FBF782FBCCE179E2F4
:104BD0004DE221E2F4E100000C0000200D0A00008B
:104BE0002D2D2D2D2D2D2D2D2D2D2D2D2D2D2D2DF5
:104BF0002D2D2D2D2D2D2D2D55534D4152542056FB
:104C0000332E322D2D2D2D2D2D2D2D2D2D2D2D2DC8
:104C10002D2D2D2D2D2D2D2D2D2D2D200D0A00006E
:104C20002020202055534D415254CAC7D3C9414C6E
:104C300049454E54454BBFAAB7A2B5C4D2BBB8F63E
:104C4000C1E9C7C9B5C4B4AEBFDAB5F7CAD4BBA50C
:104C5000BDBBD7E9BCFE2CCDA8B9FD200D0A0000D4
:104C6000CBFC2CC4E3BFC9D2D4CDA8B9FDB4AEBF30
:104C7000DAD6FACAD6B5F7D3C3B3CCD0F2C0EFC3F5
:104C8000E6B5C4C8CEBACEBAAFCAFD2CB2A2D6B46D
:104C9000D0D02ED2F2B4CB2CC4E3BFC90D0A000091
:104CA000D2D4CBE6D2E2B8FCB8C4BAAFCAFDB5C420
:104CB000CAE4C8EBB2CECAFD28D6A7B3D6CAFDD780
:104CC000D62831302F3136BDF8D6C62CD6A7B3D66C
:104CD000B8BACAFD29A1A2D7D6B7FBB4AE0D0A0057
:104CE000A1A2BAAFCAFDC8EBBFDAB5D8D6B7B5C86E
:104CF000D7F7CEAAB2CECAFD292CB5A5B8F6BAAF61
:104D0000CAFDD7EEB6E0D6A7B3D63130B8F6CAE4BE
:104D1000C8EBB2CECAFD2CB2A2D6A7B3D60D0A00FC
:104D2000BAAFCAFDB7B5BBD8D6B5CFD4CABE2ED69A
:104D3000A7B3D6B2CECAFDCFD4CABEBDF8D6C6C9B7
:104D4000E8D6C3B9A6C4DC2CD6A7B3D6BDF8D6C660
:104D5000D7AABBBBB9A6C4DC2E0D0A00BCBCCAF5E1
:104D6000D6A7B3D63A7777772E6F70656E6564767F
:104D70002E636F6D0D0A000055534D415254D3D030
:104D800037B8F6CFB5CDB3C3FCC1EE28B1D8D0EB60
:104D9000D0A1D0B4293A0D0A000000003F3A2020EB
:104DA00020202020BBF1C8A1B0EFD6FAD0C5CFA2F9
:104DB0000D0A000068656C703A202020BBF1C8A184
:104DC000B0EFD6FAD0C5CFA20D0A00006C6973749B
:104DD0003A202020BFC9D3C3B5C4BAAFCAFDC1D0E1
:104DE000B1ED0D0A0A00000069643A20202020205D
:104DF000BFC9D3C3BAAFCAFDB5C44944C1D0B1ED30
:104E00000D0A0A006865783A20202020B2CECAFD3B
:104E10003136BDF8D6C6CFD4CABE2CBAF3B8FABF65
:104E2000D5B8F12BCAFDD7D6BCB4D6B4D0D0BDF816
:104E3000D6C6D7AABBBB0D0A0A0000006465633A58
:104E400020202020B2CECAFD3130BDF8D6C6CFD446
:104E5000CABE2CBAF3B8FABFD5B8F12BCAFDD7D663
:104E6000BCB4D6B4D0D0BDF8D6C6D7AABBBB0D0A49
:104E70000A00000072756E74696D653A312CBFAA24
:104E8000C6F4BAAFCAFDD4CBD0D0BCC6CAB13B3091
:104E90002CB9D8B1D5BAAFCAFDD4CBD0D0BCC6CA14
:104EA000B13B0D0A0A000000C7EBB0B4D5D5B3CCB6
:104EB000D0F2B1E0D0B4B8F1CABDCAE4C8EBBAAF21
:104EC000CAFDC3FBBCB0B2CECAFDB2A2D2D4BBD81D
:104ED000B3B5BCFCBDE1CAF82E0D0A002D2D2D2D59
:104EE0002D2D2D2D2D2D2D2D2D2D2D2D2D2D2D2DF2
:104EF0002D2D2D2D2D2D414C49454E54454B2D2DFD
:104F00002D2D2D2D2D2D2D2D2D2D2D2D2D2D2D2DD1
:104F10002D2D2D2D2D2D2D200D0A00002D2D2D2D6B
:104F20002D2D2D2D2D2D2D2D2D2D2D2D2D2D2D2DB1
:104F30002D2D2D2D2DBAAFCAFDC7E5B5A52D2D2DD3
:104F40002D2D2D2D2D2D2D2D2D2D2D2D2D2D2D2D91
:104F50002D2D2D2D2D2D2D2D200D0A009000002002
:104F600025730D0A0000000059A0FBF7B1F90020DD
:104F70000B901AE0664909689DF82C2001EBC201EC
:104F800001AB02AA486803A9FFF7AEFA60480068BF
:104F90009DF82C1050F8312003A95EA0FBF798F97A
:104FA0009DF82C00401CC0B20B905948007D9DF824
:104FB0002C108842DEDCAFF2DC30FBF789F983E0AD
:104FC000AFF2E830FBF784F90BAA03A92046FFF7FC
:104FD00005FA9DF82C00C8B9694603A8FFF7BBFC89
:104FE0000B909DF82C0020B94FA00099FBF770F9A9
:104FF0000EE09DF82C00042801D0022063E54DA0AE
:10500000FBF766F901204249C87501E002205AE524
:1050100047A0FBF75DF957E045A0FBF759F90BAA4C
:1050200003A92046FFF7DAF99DF82C00C8B96946B4
:1050300003A8FFF790FC0B909DF82C0020B942A02C
:105040000099FBF745F90EE09DF82C00042801D0EB
:10505000022038E53FA0FBF73BF900202C49C8753A
:1050600001E002202FE532A0FBF732F92CE030A05E
:10507000FBF72EF90BAA03A92046FFF7AFF99DF81D
:105080002C00C8B9694603A8FFF765FC0B909DF892
:105090002C0078B91E49009881F8EC00084690F879
:1050A000EC0018B130A0FBF713F907E035A0FBF7CF
:1050B0000FF903E0022006E5022004E51CA0FBF73F
:1050C00007F901E00120FEE400BF0020FBE400003E
:1050D0002D2D2D2D2D2D2D2D2D2D2D2D2D2D2D2D00
:1050E0002D2D2D2D2D2D2D2D2DBAAFCAFD2049444E
:1050F000202D2D2D2D2D2D2D2D2D2D2D2D2D2D2DED
:105100002D2D2D2D2D2D2D2D2D2D2D2D200D0A004C
:105110009000002025732069642069733A0D0A30DD
:1051200058253038580D0A004845583A3058255807
:105130000D0A00003136BDF8D6C6B2CECAFDCFD4B6
:10514000CABE210D0A0000004445433A256C750D86
:105150000A0000003130BDF8D6C6B2CECAFDCFD4A9
:10516000CABE210D0A00000052756E2054696D659B
:105170002043616C63756C6174696F6E204F4E0DD6
:105180000A00000052756E2054696D652043616C01
:1051900063756C6174696F6E204F46460D0A00009E
:1051A000016070474FF04070E1EE100A70473031F7
:1051B000323334353637383941424344454640303E
:1051C00058003031323334353637383961626364F0
:1051D0006566403078000400000800000000000010
:1051E00000020001000010003F0000006465630041
:1051F0006964000072756E74696D650068656C7035
:10520000000000006C69737400000000686578009D
:10521000766F696420676F6228766F696429000081
:10522000766F696420676F6628766F69642900006D
:10523000766F696420676F6C28766F696429000057
:10524000766F696420676F7228766F696429000041
:10525000696E74204750535F5465737428766F6984
:1052600064290000766F69642077726974655F61F4
:105270006464722875333220616464722C75333231
:105280002076616C290000007533322072656164FC
:105290005F6164647228753332206164647229002E
:1052A000766F69642064656C61795F6D7328753110
:1052B00036206E6D73290000766F69642064656C1A
:1052C00061795F757328753332206E75732900001C
:1052D000766F696420676F5F64656C74615F6C28CA
:1052E0007538206478290000766F696420676F5FE5
:1052F00064656C74615F72287538206478290000D9
:10530000766F696420676F5F64656C74615F6228A3
:105310007538206479290000766F696420676F5FB3
:1053200064656C74615F66287538206479290000B3
:10533000505300080000002084010000C401000850
:10534000D8530008840100202C050000200200082A
:10535000C113E8511B08FC041304521B08F0081A7F
:105360000C081AEC081AF40413FD371B0888101AED
:10537000A10C2A6408121F1B08A0081AD9081AB821
:105380000813510A1B08500813572B1B0820081339
:10539000F3281B08100813ED2E1B08300813833266
:1053A0001B08400813712114081853140865241BA6
:1053B00008E810136D201208191013EB221B08D0F7
:1053C0001022281420154814085940140809411BBC
:0853D00008850C220D02DC012E
:040000050800018965
:00000001FF
